:020000040800F2
:1000000000500020FD010008E5010008E70100089C
:10001000E9010008EB010008ED0100080000000004
:10002000000000000000000000000000EF010008D8
:10003000F101000800000000F3010008F5010008CC
:100040004502000845020008450200084502000874
:100050004502000845020008450200084502000864
:100060004502000845020008450200084502000854
:100070004502000845020008450200084502000844
:100080004502000845020008450200084502000834
:100090004502000845020008450200084502000824
:1000A0004502000845020008450200084502000814
:1000B0004502000845020008450200084502000804
:1000C00045020008450200084502000845020008F4
:1000D00045020008450200084502000845020008E4
:1000E0004502000845020008450200080000000023
:1000F0000000000000000000000000000000000000
:0C01000000000000000000005FF808F1A3
:10010C0010B5054C237833B9044B13B10448AFF345
:10011C0000800123237010BD0400002000000000AB
:10012C00A802000808B5034B1BB103490348AFF301
:10013C00008008BD0000000008000020A802000894
:10014C004FF0804341F63F7201389A62D8621A69C7
:10015C0022F001021A611A6842F001021A601A694F
:10016C00D207FCD51A6822F001021A607047000011
:10017C0008B5174B5A6822F003025A605A6812F0FD
:10018C000C0FFBD19A69134942F010029A61DA699B
:10019C0042F00102DA614B6823F440134B604B6868
:1001AC0043F400134B604B6823F440034B60CB6863
:1001BC004FF47A7043F40053CB60FFF7C1FFCB6868
:1001CC004FF47A7023F40053CB60FFF7B9FFEEE7DE
:1001DC000010024000100140FEE7FEE7FEE7FEE7DC
:1001EC00FEE770477047704700F028B87047000072
:1001FC00FFF7FCFF0B480C490C4A002302E0D458D3
:10020C00C4500433C4188C42F9D3094A094C002356
:10021C0001E013600432A242FBD300F01BF8FFF79D
:10022C00A7FF70470000002004000020C80200084F
:10023C000400002024000020FEE70000034A044BC9
:10024C0011681B780B441360704700BF200000201E
:10025C000000002070B500260C4D0D4C641BA41042
:10026C00A64209D100F01AF800260A4D0A4C641B6C
:10027C00A410A64205D170BD55F8043B9847013631
:10028C00EEE755F8043B98470136F2E7C002000848
:10029C00C0020008C0020008C4020008F8B500BF84
:1002AC00F8BC08BC9E467047F8B500BFF8BC08BC4B
:0402BC009E467047A3
:0402C0003101000800
:0402C4000D01000820
:0402C8000100000031
:04000005080001FDF1
:00000001FF
